:100000000C9434000C9449000C9449000C94490061
:100010000C9449000C9449000C9449000C9449003C
:100020000C9449000C9449000C9449000C9449002C
:100030000C9449000C9449000C9449000C9449001C
:100040000C9449000C9449000C94F2000C94490063
:100050000C9449000C9449000C9449000C944900FC
:100060000C9449000C94490011241FBECFEFD8E036
:10007000DEBFCDBF11E0A0E0B1E0E0E6F2E002C0FB
:1000800005900D92AA38B107D9F70E94B0000C94E0
:100090002E010C9400008AB182608AB98AB18E7FE9
:1000A0008AB9E1ECF0E0808188698083E2ECF0E0DD
:1000B00080818660808387E690E09093C50080937E
:1000C000C40008959091C00095FFFCCF8093C600B6
:1000D00008950F931F93CF938C01C0E0F801EC0FAC
:1000E000F11D8081882321F00E946200CF5FF6CF4E
:1000F000CF911F910F910895ECE7F0E08081876622
:100100008083EAE7F0E08081876880838081806473
:1001100080830895F8948FEF84B90E944B000E9469
:100120007C0078940895EAE7F0E080818064808321
:1001300080917A0086FDFCCF80917900089580E05F
:1001400091E00E94690089E091E00E94690080E2EC
:1001500091E00E94690081E391E00E9469000895A6
:100160000E948A0085E40E94620087E40E94620087
:1001700083E30E94620089E491E00E9469000E948A
:100180009F00FFCFCF93DF9399E2899F912D112498
:1001900092959F70D82F24E6929FD0191124CDEC10
:1001A000DC9FD12D1124D695D695D6958C9FC12D47
:1001B0001124C695C695C695CC0F2C2F220F220F61
:1001C000C20F8C1BC82F80E3890F0E94620080E35E
:1001D0008D0F0E94620080E38C0F0E946200DF910D
:1001E000CF9108951F920F920FB60F9211242F9363
:1001F0003F934F935F936F937F938F939F93AF93AF
:10020000BF93EF93FF938091C600813349F40E941E
:1002100093000E94C20084E791E00E9469000BC035
:10022000823329F482E691E00E94690004C086E7E7
:1002300091E00E9469000E949F00FF91EF91BF91A1
:10024000AF919F918F917F916F915F914F913F916E
:100250002F910F900FBE0F901F901895F894FFCF1D
:100260000A0A4D656E753A0A00312E204C6565729A
:1002700020506F74656E63696F6D6574726F0A00EC
:10028000322E20456E766961722041534349490AF6
:100290000053656C656363696F6E6520756E6120E0
:1002A0006F7063696F6E3A0A000A20456C206465BE
:1002B0006C61792065732064656C20646961626C8F
:1002C0006F000A456E7669616E646F204153434941
:1002D000492E2E2E0A000A4F7063696F6E20696ED8
:0A02E00076616C6964612E0A00006B
:00000001FF
