S01400004C61626F7261746F72696F362E737265635C
S11300000C9434000C943E000C943E000C943E007E
S11300100C943E000C943E000C943E000C943E0064
S11300200C943E000C943E000C943E000C943E0054
S11300300C943E000C943E000C943E000C943E0044
S11300400C943E000C943E000C946F000C943E0003
S11300500C943E000C943E000C943E000C943E0024
S11300600C943E000C943E0011241FBECFEFD8E048
S1130070DEBFCDBF0E9467000C9495000C94000075
S11300808AB182608AB98AB18E7F8AB91092C0001F
S1130090E1ECF0E0808188698083E2ECF0E080812B
S11300A08660808387E690E09093C5008093C400C7
S11300B00895F8940E9440008FEF84B978940895CD
S11300C09091C00095FFFCCF8093C60008950E94D4
S11300D0590085E40E946000FFCF85B908951F92FE
S11300E00F920FB60F9211242F933F934F935F9368
S11300F06F937F938F939F93AF93BF93EF93FF93EC
S11301008091C6000E946D00FF91EF91BF91AF9165
S11301109F918F917F916F915F914F913F912F911B
S11101200F900FBE0F901F901895F894FFCF0C
S9030000FC
